:020000040000FA
:100000000C945D000C9485000C9485000C94850084
:100010000C9485000C9485000C9485000C9485004C
:100020000C9485000C9485000C9485000C9485003C
:100030000C9485000C9485000C9485000C9485002C
:100040000C94D8020C9485000C9485000C948500C7
:100050000C9485000C9485000C9485000C9485000C
:100060000C9485000C9485000000000024002700FB
:100070002A0000000000250028002B0004040404CE
:100080000404040402020202020203030303030342
:10009000010204081020408001020408102001021F
:1000A00004081020000000080002010000030407FB
:1000B0000000000000000000C90311241FBECFEFA4
:1000C000D8E0DEBFCDBF11E0A0E0B1E0EEEDF7E09B
:1000D00002C005900D92A232B107D9F721E0A2E249
:1000E000B1E001C01D92A334B207E1F710E0CDE505
:1000F000D0E004C02197FE010E94E703CC35D10770
:10010000C9F70E9422030C94ED030C940000AF92F7
:10011000BF92CF92DF92EF92FF920F931F93CF93F4
:10012000DF936C017B018B01040F151FEB015E0156
:10013000AE18BF08C017D10759F06991D601ED91EB
:10014000FC910190F081E02DC6010995892B79F78A
:10015000C501DF91CF911F910F91FF90EF90DF903C
:10016000CF90BF90AF90089590E0FC01EC55FF4F09
:100170002491FC01E057FF4F3491FC01E458FF4FFC
:10018000E491EE23C9F0222339F0233001F1A8F4E1
:10019000213019F1223029F1F0E0EE0FFF1FEE5867
:1001A000FF4FA591B4918FB7F894EC91611126C0DF
:1001B00030953E233C938FBF08952730A9F0283017
:1001C000C9F0243049F7809180008F7D03C0809171
:1001D00080008F7780938000DFCF84B58F7784BDD8
:1001E000DBCF84B58F7DFBCF8091B0008F7780937C
:1001F000B000D2CF8091B0008F7DF9CF3E2BDACF07
:10020000CF93DF9390E0FC01E057FF4F2491845897
:100210009F4FFC0184918823D1F090E0880F991FB3
:10022000FC01E859FF4FA591B491FC01EE58FF4F36
:10023000C591D49161110EC09FB7F8948C91E22FB3
:10024000E0958E238C932881E223E8839FBFDF9182
:10025000CF9108958FB7F894EC91E22BEC938FBF78
:10026000F6CF3FB7F8948091270190912801A09193
:100270002901B0912A0126B5A89B05C02F3F19F08E
:100280000196A11DB11D3FBFBA2FA92F982F882716
:10029000BC01CD01620F711D811D911D42E0660FF1
:1002A000771F881F991F4A95D1F708958F929F92C3
:1002B000AF92BF92CF92DF92EF92FF920E943101F4
:1002C0004B015C0188E8C82E83E1D82EE12CF12C8B
:1002D0000E943101681979098A099B09683E7340B7
:1002E00081059105A8F321E0C21AD108E108F108BF
:1002F00088EE880E83E0981EA11CB11CC114D104A5
:10030000E104F10429F7FF90EF90DF90CF90BF90C8
:10031000AF909F908F900895089590E080E00895A9
:10032000CF93DF93EC0160E08E810E94B40061E026
:100330008E810E94B40060E08E810E94B4008BE840
:1003400091E00197F1F7DF91CF910895CF92DF927D
:10035000EF92FF920F931F93CF93DF936C017C0179
:1003600087E0E80EF11CD0E0C0E0062F10E0B801F5
:100370000C2E02C0759567950A94E2F76170F7013B
:1003800081917F010E94B4002196C430D10579F794
:10039000C601DF91CF911F910F91FF90EF90DF90F9
:1003A000CF900C949001CF92DF92EF92FF920F9337
:1003B0001F93CF93DF93EC01F62E642F8C810E9464
:1003C000B4008D818F3F19F060E00E94B4000F2DC2
:1003D00010E08F8584FF25C06E0187E0C80ED11C18
:1003E000F12CE12CB8010E2C02C0759567950A948A
:1003F000E2F76170F60181916F010E94B400FFEF96
:10040000EF1AFF0A88E0E816F10461F7CE01DF91E8
:10041000CF911F910F91FF90EF90DF90CF900C94B0
:100420009001B80184E0759567958A95E1F7CE0152
:100430000E94A6016F2DCE01DF91CF911F910F91E8
:10044000FF90EF90DF90CF900C94A60140E0682FD2
:100450008BE291E00C94D301CF93DF93823029F4A7
:1004600090913A01986090933A0180933E011092E6
:100470003F0180E48093400180E18093410180E569
:100480008093420161E080912F010E9400018091E0
:1004900030018F3F19F061E00E94000161E080911E
:1004A00031010E940001CBE2D1E09E012B5231408C
:1004B00080913A0184FD0BC084E090E021962817DA
:1004C000390744F461E08E810E940001EECF88E09C
:1004D00090E0F4CF8BE39DE00197F1F760E080912D
:1004E0002F010E94B40060E0809131010E94B400AD
:1004F000809130018F3F19F060E00E94B40080913C
:100500003A0184FD39C063E08BE291E00E94A601CC
:10051000CBE4D6E4CE010197F1F763E08BE291E002
:100520000E94A6012197F1F763E08BE291E00E941F
:10053000A60183E592E00197F1F762E08BE291E09A
:100540000E94A60180913A0180620E94260284E006
:1005500080933B018CE00E94260281E00E942602EB
:100560008BE39FE10197F1F782E080933C0186E005
:10057000DF91CF910C94260280620E9426028BE4C8
:1005800096E40197F1F780913A0180620E94260279
:1005900083E592E00197F1F780913A0180620E9431
:1005A0002602D0CF41E00E94D30181E090E008957F
:1005B0001F920F920FB60F9211242F933F938F9398
:1005C0009F93AF93BF938091230190912401A091B9
:1005D0002501B09126013091220123E0230F2D3710
:1005E00058F50196A11DB11D20932201809323018E
:1005F00090932401A0932501B093260180912701B7
:1006000090912801A0912901B0912A010196A11D84
:10061000B11D8093270190932801A0932901B093E5
:100620002A01BF91AF919F918F913F912F910F9090
:100630000FBE0F901F90189526E8230F0296A11D5C
:10064000B11DD2CF789484B5826084BD84B58160B9
:1006500084BD85B5826085BD85B5816085BD80918D
:100660006E00816080936E00109281008091810005
:1006700082608093810080918100816080938100FD
:10068000809180008160809380008091B1008460BF
:100690008093B1008091B00081608093B000809120
:1006A0007A00846080937A0080917A0082608093DF
:1006B0007A0080917A00816080937A0080917A003C
:1006C000806880937A001092C10082E00E942C0220
:1006D00060E086E00E94000161E087E00E94000186
:1006E0000E945601CBE3DFE10FE010E083E2E82E49
:1006F000F12C90E0C92E90E0D92E81E00E942602D4
:10070000CE010197F1F760E087E00E94B400C801D4
:100710000197F1F761E087E00E94B400C7010197FB
:10072000F1F760E087E00E94B400E1E080913E01D3
:100730008111E0E0E195F0E0E55DFE4F848980689D
:100740000E94260240E150E06CE071E08BE291E013
:100750000E948700E0913E01E230C8F4E150F0E0F1
:10076000E55DFE4F848980680E94260244E050E0E7
:100770006DE171E08BE291E00E9487000E945601DA
:10078000C114D10409F4B9CF0E940000B6CFE1E052
:10079000E6CFEBE2F1E01382128284E091E09183F4
:1007A00080838CE084838FEF85838BE0868385E074
:1007B000878384E0808783E0818782E08287138655
:1007C000148615861686178681E00C942C02EE0F8F
:1007D000FF1F0590F491E02D0994F894FFCF0000DD
:1007E0000000D20287008D018C014269656E76653A
:1007F0006E69646F20617175C3AD00486F6C6100F4
:107E0000112484B714BE81FFF0D085E080938100F7
:107E100082E08093C00088E18093C10086E0809377
:107E2000C20080E18093C4008EE0C9D0259A86E02C
:107E300020E33CEF91E0309385002093840096BBD3
:107E4000B09BFECF1D9AA8958150A9F7CC24DD24C4
:107E500088248394B5E0AB2EA1E19A2EF3E0BF2EE7
:107E6000A2D0813461F49FD0082FAFD0023811F036
:107E7000013811F484E001C083E08DD089C08234E0
:107E800011F484E103C0853419F485E0A6D080C0E4
:107E9000853579F488D0E82EFF2485D0082F10E0AE
:107EA000102F00270E291F29000F111F8ED06801E7
:107EB0006FC0863521F484E090D080E0DECF843638
:107EC00009F040C070D06FD0082F6DD080E0C81688
:107ED00080E7D80618F4F601B7BEE895C0E0D1E017
:107EE00062D089930C17E1F7F0E0CF16F0E7DF06D8
:107EF00018F0F601B7BEE89568D007B600FCFDCFD4
:107F0000A601A0E0B1E02C9130E011968C91119780
:107F100090E0982F8827822B932B1296FA010C0160
:107F200087BEE89511244E5F5F4FF1E0A038BF0790
:107F300051F7F601A7BEE89507B600FCFDCF97BE46
:107F4000E89526C08437B1F42ED02DD0F82E2BD052
:107F50003CD0F601EF2C8F010F5F1F4F84911BD097
:107F6000EA94F801C1F70894C11CD11CFA94CF0C13
:107F7000D11C0EC0853739F428D08EE10CD085E9AC
:107F80000AD08FE07ACF813511F488E018D01DD067
:107F900080E101D065CF982F8091C00085FFFCCF94
:107FA0009093C60008958091C00087FFFCCF809118
:107FB000C00084FD01C0A8958091C6000895E0E648
:107FC000F0E098E1908380830895EDDF803219F02E
:107FD00088E0F5DFFFCF84E1DECF1F93182FE3DFCA
:107FE0001150E9F7F2DF1F91089580E0E8DFEE27F6
:047FF000FF270994CA
:027FFE00040479
:00000001FF
